{
  "contractName": "FlightSuretyData",
  "abi": [
    {
      "inputs": [
        {
          "name": "firstAirline",
          "type": "address"
        }
      ],
      "payable": false,
      "stateMutability": "nonpayable",
      "type": "constructor"
    },
    {
      "payable": true,
      "stateMutability": "payable",
      "type": "fallback"
    },
    {
      "constant": false,
      "inputs": [
        {
          "name": "externalContractAddress",
          "type": "address"
        }
      ],
      "name": "authorizeCaller",
      "outputs": [],
      "payable": false,
      "stateMutability": "nonpayable",
      "type": "function"
    },
    {
      "constant": false,
      "inputs": [
        {
          "name": "externalContractAddress",
          "type": "address"
        }
      ],
      "name": "deauthorizeCaller",
      "outputs": [],
      "payable": false,
      "stateMutability": "nonpayable",
      "type": "function"
    },
    {
      "constant": true,
      "inputs": [
        {
          "name": "externalContractAddress",
          "type": "address"
        }
      ],
      "name": "isAuthorizedCaller",
      "outputs": [
        {
          "name": "",
          "type": "bool"
        }
      ],
      "payable": false,
      "stateMutability": "view",
      "type": "function"
    },
    {
      "constant": true,
      "inputs": [],
      "name": "isOperational",
      "outputs": [
        {
          "name": "",
          "type": "bool"
        }
      ],
      "payable": false,
      "stateMutability": "view",
      "type": "function"
    },
    {
      "constant": true,
      "inputs": [
        {
          "name": "originSender",
          "type": "address"
        }
      ],
      "name": "isCallerAirlineRegistered",
      "outputs": [
        {
          "name": "",
          "type": "bool"
        }
      ],
      "payable": false,
      "stateMutability": "view",
      "type": "function"
    },
    {
      "constant": true,
      "inputs": [
        {
          "name": "originSender",
          "type": "address"
        }
      ],
      "name": "isCallerAirlineFunded",
      "outputs": [
        {
          "name": "",
          "type": "bool"
        }
      ],
      "payable": false,
      "stateMutability": "view",
      "type": "function"
    },
    {
      "constant": true,
      "inputs": [
        {
          "name": "originSender",
          "type": "address"
        },
        {
          "name": "airline",
          "type": "address"
        },
        {
          "name": "flightNumber",
          "type": "string"
        },
        {
          "name": "timestamp",
          "type": "uint256"
        }
      ],
      "name": "isFlightInsured",
      "outputs": [
        {
          "name": "",
          "type": "bool"
        }
      ],
      "payable": false,
      "stateMutability": "view",
      "type": "function"
    },
    {
      "constant": false,
      "inputs": [
        {
          "name": "mode",
          "type": "bool"
        }
      ],
      "name": "setOperatingStatus",
      "outputs": [],
      "payable": false,
      "stateMutability": "nonpayable",
      "type": "function"
    },
    {
      "constant": true,
      "inputs": [
        {
          "name": "firstAirline",
          "type": "address"
        }
      ],
      "name": "isFirstAirlineRegistered",
      "outputs": [
        {
          "name": "",
          "type": "bool"
        }
      ],
      "payable": false,
      "stateMutability": "view",
      "type": "function"
    },
    {
      "constant": true,
      "inputs": [],
      "name": "getBalance",
      "outputs": [
        {
          "name": "",
          "type": "uint256"
        }
      ],
      "payable": false,
      "stateMutability": "view",
      "type": "function"
    },
    {
      "constant": false,
      "inputs": [
        {
          "name": "originSender",
          "type": "address"
        },
        {
          "name": "airline",
          "type": "address"
        }
      ],
      "name": "registerAirline",
      "outputs": [
        {
          "name": "success",
          "type": "bool"
        }
      ],
      "payable": false,
      "stateMutability": "nonpayable",
      "type": "function"
    },
    {
      "constant": false,
      "inputs": [
        {
          "name": "airline",
          "type": "address"
        }
      ],
      "name": "fundAirline",
      "outputs": [],
      "payable": false,
      "stateMutability": "nonpayable",
      "type": "function"
    },
    {
      "constant": false,
      "inputs": [
        {
          "name": "originSender",
          "type": "address"
        },
        {
          "name": "airline",
          "type": "address"
        },
        {
          "name": "flightNumber",
          "type": "string"
        },
        {
          "name": "timestamp",
          "type": "uint256"
        },
        {
          "name": "amount",
          "type": "uint256"
        }
      ],
      "name": "buy",
      "outputs": [],
      "payable": false,
      "stateMutability": "nonpayable",
      "type": "function"
    },
    {
      "constant": true,
      "inputs": [
        {
          "name": "originSender",
          "type": "address"
        }
      ],
      "name": "insureeBalance",
      "outputs": [
        {
          "name": "",
          "type": "uint256"
        }
      ],
      "payable": false,
      "stateMutability": "view",
      "type": "function"
    },
    {
      "constant": false,
      "inputs": [
        {
          "name": "airline",
          "type": "address"
        },
        {
          "name": "flightNumber",
          "type": "string"
        },
        {
          "name": "timestamp",
          "type": "uint256"
        }
      ],
      "name": "creditInsurees",
      "outputs": [],
      "payable": false,
      "stateMutability": "nonpayable",
      "type": "function"
    },
    {
      "constant": false,
      "inputs": [
        {
          "name": "originSender",
          "type": "address"
        }
      ],
      "name": "pay",
      "outputs": [],
      "payable": false,
      "stateMutability": "nonpayable",
      "type": "function"
    },
    {
      "constant": true,
      "inputs": [],
      "name": "pay",
      "outputs": [],
      "payable": false,
      "stateMutability": "pure",
      "type": "function"
    },
    {
      "constant": false,
      "inputs": [],
      "name": "fund",
      "outputs": [],
      "payable": true,
      "stateMutability": "payable",
      "type": "function"
    }
  ],
  "bytecode": "0x60806040526001600060146101000a81548160ff02191690831515021790555034801561002b57600080fd5b5060405160208061270783398101806040528101908080519060200190929190505050336000806101000a81548173ffffffffffffffffffffffffffffffffffffffff021916908373ffffffffffffffffffffffffffffffffffffffff160217905550604080519081016040528060001515815260200160011515815250600260008373ffffffffffffffffffffffffffffffffffffffff1673ffffffffffffffffffffffffffffffffffffffff16815260200190815260200160002060008201518160000160006101000a81548160ff02191690831515021790555060208201518160000160016101000a81548160ff021916908315150217905550905050506125cc8061013b6000396000f3006080604052600436106100fc576000357c0100000000000000000000000000000000000000000000000000000000900463ffffffff16806302d3f2b4146101065780630c11dedd1461015d578063110466ed146101a057806312065fe0146101cf5780631b9265b8146101fa5780632a747413146102115780632c388d5d146102dc57806359d14b411461031f5780636873c21d1461037a5780636fbb8798146103bd57806370133fa714610400578063a0ceb5a51461045b578063b60d4288146104b6578063c6dd6d13146104c0578063c7ba50181461051b578063c8820a7014610596578063cd905dff146105fb578063cf90cc441461062a575b6101046106b9565b005b34801561011257600080fd5b50610147600480360381019080803573ffffffffffffffffffffffffffffffffffffffff1690602001909291905050506106bb565b6040518082815260200191505060405180910390f35b34801561016957600080fd5b5061019e600480360381019080803573ffffffffffffffffffffffffffffffffffffffff1690602001909291905050506108ba565b005b3480156101ac57600080fd5b506101cd600480360381019080803515159060200190929190505050610c11565b005b3480156101db57600080fd5b506101e4610cf2565b6040518082815260200191505060405180910390f35b34801561020657600080fd5b5061020f610e7e565b005b34801561021d57600080fd5b506102c2600480360381019080803573ffffffffffffffffffffffffffffffffffffffff169060200190929190803573ffffffffffffffffffffffffffffffffffffffff169060200190929190803590602001908201803590602001908080601f016020809104026020016040519081016040528093929190818152602001838380828437820191505050505050919291929080359060200190929190505050610e80565b604051808215151515815260200191505060405180910390f35b3480156102e857600080fd5b5061031d600480360381019080803573ffffffffffffffffffffffffffffffffffffffff169060200190929190505050610ec8565b005b34801561032b57600080fd5b50610360600480360381019080803573ffffffffffffffffffffffffffffffffffffffff169060200190929190505050610fd3565b604051808215151515815260200191505060405180910390f35b34801561038657600080fd5b506103bb600480360381019080803573ffffffffffffffffffffffffffffffffffffffff1690602001909291905050506110e2565b005b3480156103c957600080fd5b506103fe600480360381019080803573ffffffffffffffffffffffffffffffffffffffff1690602001909291905050506111ec565b005b34801561040c57600080fd5b50610441600480360381019080803573ffffffffffffffffffffffffffffffffffffffff169060200190929190505050611401565b604051808215151515815260200191505060405180910390f35b34801561046757600080fd5b5061049c600480360381019080803573ffffffffffffffffffffffffffffffffffffffff169060200190929190505050611503565b604051808215151515815260200191505060405180910390f35b6104be6106b9565b005b3480156104cc57600080fd5b50610501600480360381019080803573ffffffffffffffffffffffffffffffffffffffff16906020019092919050505061155c565b604051808215151515815260200191505060405180910390f35b34801561052757600080fd5b5061057c600480360381019080803573ffffffffffffffffffffffffffffffffffffffff169060200190929190803573ffffffffffffffffffffffffffffffffffffffff1690602001909291905050506115b5565b604051808215151515815260200191505060405180910390f35b3480156105a257600080fd5b506105f9600480360381019080803573ffffffffffffffffffffffffffffffffffffffff16906020019092919080359060200190820180359060200191909192939192939080359060200190929190505050611a4b565b005b34801561060757600080fd5b50610610611e99565b604051808215151515815260200191505060405180910390f35b34801561063657600080fd5b506106b7600480360381019080803573ffffffffffffffffffffffffffffffffffffffff169060200190929190803573ffffffffffffffffffffffffffffffffffffffff1690602001909291908035906020019082018035906020019190919293919293908035906020019092919080359060200190929190505050611eaf565b005b565b60008060149054906101000a900460ff161515610766576040517f08c379a00000000000000000000000000000000000000000000000000000000081526004018080602001828103825260258152602001807f436f6e74726163742069732063757272656e746c79206e6f74206f706572617481526020017f696f6e616c00000000000000000000000000000000000000000000000000000081525060400191505060405180910390fd5b60018060003373ffffffffffffffffffffffffffffffffffffffff1673ffffffffffffffffffffffffffffffffffffffff1681526020019081526020016000205414806107ff57506000809054906101000a900473ffffffffffffffffffffffffffffffffffffffff1673ffffffffffffffffffffffffffffffffffffffff163373ffffffffffffffffffffffffffffffffffffffff16145b1515610873576040517f08c379a000000000000000000000000000000000000000000000000000000000815260040180806020018281038252601c8152602001807f43616c6c6572206973206e6f7420636f6e7472616374206f776e65720000000081525060200191505060405180910390fd5b600460008373ffffffffffffffffffffffffffffffffffffffff1673ffffffffffffffffffffffffffffffffffffffff168152602001908152602001600020549050919050565b60008060149054906101000a900460ff161515610965576040517f08c379a00000000000000000000000000000000000000000000000000000000081526004018080602001828103825260258152602001807f436f6e74726163742069732063757272656e746c79206e6f74206f706572617481526020017f696f6e616c00000000000000000000000000000000000000000000000000000081525060400191505060405180910390fd5b60018060003373ffffffffffffffffffffffffffffffffffffffff1673ffffffffffffffffffffffffffffffffffffffff1681526020019081526020016000205414806109fe57506000809054906101000a900473ffffffffffffffffffffffffffffffffffffffff1673ffffffffffffffffffffffffffffffffffffffff163373ffffffffffffffffffffffffffffffffffffffff16145b1515610a72576040517f08c379a000000000000000000000000000000000000000000000000000000000815260040180806020018281038252601c8152602001807f43616c6c6572206973206e6f7420636f6e7472616374206f776e65720000000081525060200191505060405180910390fd5b600460008373ffffffffffffffffffffffffffffffffffffffff1673ffffffffffffffffffffffffffffffffffffffff168152602001908152602001600020543073ffffffffffffffffffffffffffffffffffffffff1631111515610b3f576040517f08c379a00000000000000000000000000000000000000000000000000000000081526004018080602001828103825260158152602001807f436f6e7472616374206f7574206f662066756e6473000000000000000000000081525060200191505060405180910390fd5b600460008373ffffffffffffffffffffffffffffffffffffffff1673ffffffffffffffffffffffffffffffffffffffff1681526020019081526020016000205490506000600460008473ffffffffffffffffffffffffffffffffffffffff1673ffffffffffffffffffffffffffffffffffffffff168152602001908152602001600020819055508173ffffffffffffffffffffffffffffffffffffffff166108fc829081150290604051600060405180830381858888f19350505050158015610c0c573d6000803e3d6000fd5b505050565b6000809054906101000a900473ffffffffffffffffffffffffffffffffffffffff1673ffffffffffffffffffffffffffffffffffffffff163373ffffffffffffffffffffffffffffffffffffffff16141515610cd5576040517f08c379a000000000000000000000000000000000000000000000000000000000815260040180806020018281038252601c8152602001807f43616c6c6572206973206e6f7420636f6e7472616374206f776e65720000000081525060200191505060405180910390fd5b80600060146101000a81548160ff02191690831515021790555050565b60008060149054906101000a900460ff161515610d9d576040517f08c379a00000000000000000000000000000000000000000000000000000000081526004018080602001828103825260258152602001807f436f6e74726163742069732063757272656e746c79206e6f74206f706572617481526020017f696f6e616c00000000000000000000000000000000000000000000000000000081525060400191505060405180910390fd5b6000809054906101000a900473ffffffffffffffffffffffffffffffffffffffff1673ffffffffffffffffffffffffffffffffffffffff163373ffffffffffffffffffffffffffffffffffffffff16141515610e61576040517f08c379a000000000000000000000000000000000000000000000000000000000815260040180806020018281038252601c8152602001807f43616c6c6572206973206e6f7420636f6e7472616374206f776e65720000000081525060200191505060405180910390fd5b3073ffffffffffffffffffffffffffffffffffffffff1631905090565b565b60008060036000610e93888888886121e9565b6000191660001916815260200190815260200160002090508060000160009054906101000a900460ff16915050949350505050565b6000809054906101000a900473ffffffffffffffffffffffffffffffffffffffff1673ffffffffffffffffffffffffffffffffffffffff163373ffffffffffffffffffffffffffffffffffffffff16141515610f8c576040517f08c379a000000000000000000000000000000000000000000000000000000000815260040180806020018281038252601c8152602001807f43616c6c6572206973206e6f7420636f6e7472616374206f776e65720000000081525060200191505060405180910390fd5b60018060008373ffffffffffffffffffffffffffffffffffffffff1673ffffffffffffffffffffffffffffffffffffffff1681526020019081526020016000208190555050565b60008060009054906101000a900473ffffffffffffffffffffffffffffffffffffffff1673ffffffffffffffffffffffffffffffffffffffff163373ffffffffffffffffffffffffffffffffffffffff16141515611099576040517f08c379a000000000000000000000000000000000000000000000000000000000815260040180806020018281038252601c8152602001807f43616c6c6572206973206e6f7420636f6e7472616374206f776e65720000000081525060200191505060405180910390fd5b60018060008473ffffffffffffffffffffffffffffffffffffffff1673ffffffffffffffffffffffffffffffffffffffff16815260200190815260200160002054149050919050565b6000809054906101000a900473ffffffffffffffffffffffffffffffffffffffff1673ffffffffffffffffffffffffffffffffffffffff163373ffffffffffffffffffffffffffffffffffffffff161415156111a6576040517f08c379a000000000000000000000000000000000000000000000000000000000815260040180806020018281038252601c8152602001807f43616c6c6572206973206e6f7420636f6e7472616374206f776e65720000000081525060200191505060405180910390fd5b600160008273ffffffffffffffffffffffffffffffffffffffff1673ffffffffffffffffffffffffffffffffffffffff1681526020019081526020016000206000905550565b600060149054906101000a900460ff161515611296576040517f08c379a00000000000000000000000000000000000000000000000000000000081526004018080602001828103825260258152602001807f436f6e74726163742069732063757272656e746c79206e6f74206f706572617481526020017f696f6e616c00000000000000000000000000000000000000000000000000000081525060400191505060405180910390fd5b60018060003373ffffffffffffffffffffffffffffffffffffffff1673ffffffffffffffffffffffffffffffffffffffff16815260200190815260200160002054148061132f57506000809054906101000a900473ffffffffffffffffffffffffffffffffffffffff1673ffffffffffffffffffffffffffffffffffffffff163373ffffffffffffffffffffffffffffffffffffffff16145b15156113a3576040517f08c379a000000000000000000000000000000000000000000000000000000000815260040180806020018281038252601c8152602001807f43616c6c6572206973206e6f7420636f6e7472616374206f776e65720000000081525060200191505060405180910390fd5b6001600260008373ffffffffffffffffffffffffffffffffffffffff1673ffffffffffffffffffffffffffffffffffffffff16815260200190815260200160002060000160006101000a81548160ff02191690831515021790555050565b60008060149054906101000a900460ff1615156114ac576040517f08c379a00000000000000000000000000000000000000000000000000000000081526004018080602001828103825260258152602001807f436f6e74726163742069732063757272656e746c79206e6f74206f706572617481526020017f696f6e616c00000000000000000000000000000000000000000000000000000081525060400191505060405180910390fd5b600260008373ffffffffffffffffffffffffffffffffffffffff1673ffffffffffffffffffffffffffffffffffffffff16815260200190815260200160002060000160019054906101000a900460ff169050919050565b6000600260008373ffffffffffffffffffffffffffffffffffffffff1673ffffffffffffffffffffffffffffffffffffffff16815260200190815260200160002060000160009054906101000a900460ff169050919050565b6000600260008373ffffffffffffffffffffffffffffffffffffffff1673ffffffffffffffffffffffffffffffffffffffff16815260200190815260200160002060000160019054906101000a900460ff169050919050565b60008060149054906101000a900460ff161515611660576040517f08c379a00000000000000000000000000000000000000000000000000000000081526004018080602001828103825260258152602001807f436f6e74726163742069732063757272656e746c79206e6f74206f706572617481526020017f696f6e616c00000000000000000000000000000000000000000000000000000081525060400191505060405180910390fd5b60018060003373ffffffffffffffffffffffffffffffffffffffff1673ffffffffffffffffffffffffffffffffffffffff1681526020019081526020016000205414806116f957506000809054906101000a900473ffffffffffffffffffffffffffffffffffffffff1673ffffffffffffffffffffffffffffffffffffffff163373ffffffffffffffffffffffffffffffffffffffff16145b151561176d576040517f08c379a000000000000000000000000000000000000000000000000000000000815260040180806020018281038252601c8152602001807f43616c6c6572206973206e6f7420636f6e7472616374206f776e65720000000081525060200191505060405180910390fd5b826117778161155c565b15156117eb576040517f08c379a00000000000000000000000000000000000000000000000000000000081526004018080602001828103825260158152602001807f43616c6c6572206e6f742072656769737465726564000000000000000000000081525060200191505060405180910390fd5b836117f581611503565b151561188f576040517f08c379a000000000000000000000000000000000000000000000000000000000815260040180806020018281038252603e8152602001807f43616c6c65722063616e6e6f7420706172746963697061746520696e20636f6e81526020017f747261637420756e74696c206974207375626d6974732066756e64696e67000081525060400191505060405180910390fd5b600260008573ffffffffffffffffffffffffffffffffffffffff1673ffffffffffffffffffffffffffffffffffffffff16815260200190815260200160002060000160019054906101000a900460ff16151515611954576040517f08c379a00000000000000000000000000000000000000000000000000000000081526004018080602001828103825260198152602001807f4169726c696e6520616c7265616479207265676973747265640000000000000081525060200191505060405180910390fd5b604080519081016040528060001515815260200160011515815250600260008673ffffffffffffffffffffffffffffffffffffffff1673ffffffffffffffffffffffffffffffffffffffff16815260200190815260200160002060008201518160000160006101000a81548160ff02191690831515021790555060208201518160000160016101000a81548160ff021916908315150217905550905050600260008573ffffffffffffffffffffffffffffffffffffffff1673ffffffffffffffffffffffffffffffffffffffff16815260200190815260200160002060000160019054906101000a900460ff169250505092915050565b60008060008060149054906101000a900460ff161515611af9576040517f08c379a00000000000000000000000000000000000000000000000000000000081526004018080602001828103825260258152602001807f436f6e74726163742069732063757272656e746c79206e6f74206f706572617481526020017f696f6e616c00000000000000000000000000000000000000000000000000000081525060400191505060405180910390fd5b60018060003373ffffffffffffffffffffffffffffffffffffffff1673ffffffffffffffffffffffffffffffffffffffff168152602001908152602001600020541480611b9257506000809054906101000a900473ffffffffffffffffffffffffffffffffffffffff1673ffffffffffffffffffffffffffffffffffffffff163373ffffffffffffffffffffffffffffffffffffffff16145b1515611c06576040517f08c379a000000000000000000000000000000000000000000000000000000000815260040180806020018281038252601c8152602001807f43616c6c6572206973206e6f7420636f6e7472616374206f776e65720000000081525060200191505060405180910390fd5b60056000611c4960008a8a8a8080601f016020809104026020016040519081016040528093929190818152602001838380828437820191505050505050896121e9565b600019166000191681526020019081526020016000209250600091505b8280549050821015611e905760036000611cec8585815481101515611c8757fe5b9060005260206000200160009054906101000a900473ffffffffffffffffffffffffffffffffffffffff168a8a8a8080601f016020809104026020016040519081016040528093929190818152602001838380828437820191505050505050896121e9565b6000191660001916815260200190815260200160002090508060000160009054906101000a900460ff168015611d3157508060000160019054906101000a900460ff16155b15611e835760018160000160016101000a81548160ff021916908315150217905550611e07611d81600a611d73600f856001015461235290919063ffffffff16565b61238a90919063ffffffff16565b600460008686815481101515611d9357fe5b9060005260206000200160009054906101000a900473ffffffffffffffffffffffffffffffffffffffff1673ffffffffffffffffffffffffffffffffffffffff1673ffffffffffffffffffffffffffffffffffffffff168152602001908152602001600020546123a090919063ffffffff16565b600460008585815481101515611e1957fe5b9060005260206000200160009054906101000a900473ffffffffffffffffffffffffffffffffffffffff1673ffffffffffffffffffffffffffffffffffffffff1673ffffffffffffffffffffffffffffffffffffffff168152602001908152602001600020819055505b8180600101925050611c66565b50505050505050565b60008060149054906101000a900460ff16905090565b60008060149054906101000a900460ff161515611f5a576040517f08c379a00000000000000000000000000000000000000000000000000000000081526004018080602001828103825260258152602001807f436f6e74726163742069732063757272656e746c79206e6f74206f706572617481526020017f696f6e616c00000000000000000000000000000000000000000000000000000081525060400191505060405180910390fd5b60018060003373ffffffffffffffffffffffffffffffffffffffff1673ffffffffffffffffffffffffffffffffffffffff168152602001908152602001600020541480611ff357506000809054906101000a900473ffffffffffffffffffffffffffffffffffffffff1673ffffffffffffffffffffffffffffffffffffffff163373ffffffffffffffffffffffffffffffffffffffff16145b1515612067576040517f08c379a000000000000000000000000000000000000000000000000000000000815260040180806020018281038252601c8152602001807f43616c6c6572206973206e6f7420636f6e7472616374206f776e65720000000081525060200191505060405180910390fd5b868686868080601f016020809104026020016040519081016040528093929190818152602001838380828437820191505050505050856120a984848484610e80565b15151561211e576040517f08c379a00000000000000000000000000000000000000000000000000000000081526004018080602001828103825260168152602001807f466c6967687420616c726561647920696e73757265640000000000000000000081525060200191505060405180910390fd5b600360006121608d8d8d8d8080601f0160208091040260200160405190810160405280939291908181526020018383808284378201915050505050508c6121e9565b60001916600019168152602001908152602001600020945060018560000160006101000a81548160ff0219169083151502179055508585600101819055506121dc8b8b8b8b8080601f0160208091040260200160405190810160405280939291908181526020018383808284378201915050505050508a6123bc565b5050505050505050505050565b600084848484604051602001808573ffffffffffffffffffffffffffffffffffffffff1673ffffffffffffffffffffffffffffffffffffffff166c010000000000000000000000000281526014018473ffffffffffffffffffffffffffffffffffffffff1673ffffffffffffffffffffffffffffffffffffffff166c0100000000000000000000000002815260140183805190602001908083835b6020831015156122a95780518252602082019150602081019050602083039250612284565b6001836020036101000a0380198251168184511680821785525050505050509050018281526020019450505050506040516020818303038152906040526040518082805190602001908083835b60208310151561231b57805182526020820191506020810190506020830392506122f6565b6001836020036101000a03801982511681845116808217855250505050505090500191505060405180910390209050949350505050565b6000808314156123655760009050612384565b818302905081838281151561237657fe5b0414151561238057fe5b8090505b92915050565b6000818381151561239757fe5b04905092915050565b600081830190508281101515156123b357fe5b80905092915050565b60008060008060149054906101000a900460ff16151561246a576040517f08c379a00000000000000000000000000000000000000000000000000000000081526004018080602001828103825260258152602001807f436f6e74726163742069732063757272656e746c79206e6f74206f706572617481526020017f696f6e616c00000000000000000000000000000000000000000000000000000081525060400191505060405180910390fd5b6005600061247b60008989896121e9565b60001916600019168152602001908152602001600020925060009150600090505b828054905081101561252a578673ffffffffffffffffffffffffffffffffffffffff1683828154811015156124cd57fe5b9060005260206000200160009054906101000a900473ffffffffffffffffffffffffffffffffffffffff1673ffffffffffffffffffffffffffffffffffffffff16141561251d576001915061252a565b808060010191505061249c565b81151561259757828790806001815401808255809150509060018203906000526020600020016000909192909190916101000a81548173ffffffffffffffffffffffffffffffffffffffff021916908373ffffffffffffffffffffffffffffffffffffffff160217905550505b505050505050505600a165627a7a72305820b10070a43b44d1dac3af51e692ab5cfad9621e95a737c2055c319fd1a8d875da0029",
  "source": "pragma solidity ^0.4.24;\n\nimport \"../node_modules/openzeppelin-solidity/contracts/math/SafeMath.sol\";\n\ncontract FlightSuretyData {\n    using SafeMath for uint256;\n\n    /********************************************************************************************/\n    /*                                       DATA VARIABLES                                     */\n    /********************************************************************************************/\n\n    address private contractOwner;                                      // Account used to deploy contract\n    bool private operational = true;                                    // Blocks all state changes throughout the contract if false\n    mapping(address => uint256) private authorizedCallers;\n\n    struct Airline {\n        bool isFunded;\n        bool isRegistered;\n    }\n    mapping (address => Airline) private airlines;\n\n    struct FlightInsurance {\n        bool isInsured;\n        bool isCredited;\n        uint256 amount;\n    }\n    mapping(bytes32 => FlightInsurance) private flightInsurances;\n\n    mapping(address => uint256) private insureeBalances;\n    mapping(bytes32 => address[]) private insureesMap;\n    /********************************************************************************************/\n    /*                                       EVENT DEFINITIONS                                  */\n    /********************************************************************************************/\n    /**\n    * @dev Constructor\n    *      The deploying account becomes contractOwner\n    */\n    constructor\n                                (\n                                    address firstAirline\n                                ) \n                                public \n\n    {   \n        contractOwner = msg.sender;\n        airlines[firstAirline] = Airline({isFunded: false, isRegistered: true});\n    }\n\n    /********************************************************************************************/\n    /*                                       FUNCTION MODIFIERS                                 */\n    /********************************************************************************************/\n\n    // Modifiers help avoid duplication of code. They are typically used to validate something\n    // before a function is allowed to be executed.\n\n    /**\n    * @dev Modifier that requires the \"operational\" boolean variable to be \"true\"\n    *      This is used on all state changing functions to pause the contract in \n    *      the event there is an issue that needs to be fixed\n    */\n    modifier requireIsOperational() \n    {\n        require(operational, \"Contract is currently not operational\");\n        _;  // All modifiers require an \"_\" which indicates where the function body will be added\n    }\n\n    /**\n    * @dev Modifier that requires the \"ContractOwner\" account to be the function caller\n    */\n    modifier requireContractOwner()\n    {\n        require(msg.sender == contractOwner, \"Caller is not contract owner\");\n        _;\n    }\n\n    /**\n    * @dev Modifier that requires the caller of this contract to be authorized to use it\n    */\n    modifier requireIsCallerAuthorized()\n    {\n        require(authorizedCallers[msg.sender] == 1 || msg.sender == contractOwner, \"Caller is not contract owner\");\n        _;\n    }\n\n    /**\n    * @dev Modifier that requires the caller of this contract to have registered an airline\n    */\n    modifier requireIsCallerAirlineRegistered(address originSender)\n    {\n        require(isCallerAirlineRegistered(originSender), \"Caller not registered\");\n        _;\n    }\n    \n    /**\n    * @dev Modifier that requires the caller of this contract to have funded the airline\n    */\n    modifier requireIsCallerAirlineFunded(address originSender)\n    {\n        require(isCallerAirlineFunded(originSender), \"Caller cannot participate in contract until it submits funding\");\n        _;\n    }\n\n    modifier requireFlightNotInsured(address originSender, address airline, string flightNumber, uint256 timestamp)\n    {\n        require(!isFlightInsured(originSender, airline, flightNumber, timestamp), \"Flight already insured\");\n        _;\n    }\n    /********************************************************************************************/\n    /*                                       UTILITY FUNCTIONS                                  */\n    /********************************************************************************************/\n\n    /**\n    * @dev Authorize external flightSuretyApp contract to use this contract\n    */\n    function authorizeCaller(address externalContractAddress) external requireContractOwner\n    {\n        authorizedCallers[externalContractAddress] = 1;\n    } \n\n    /**\n    *@dev Deauthorize external app contract to use this contract\n    */\n    function deauthorizeCaller(address externalContractAddress) external requireContractOwner\n    {\n        delete authorizedCallers[externalContractAddress];\n    }\n\n    /**\n    * @dev Checks if caller is authorized\n    *\n    * @return A bool is caller authorized\n    */\n    function isAuthorizedCaller(address externalContractAddress) public view requireContractOwner returns(bool)\n    {\n        return authorizedCallers[externalContractAddress] == 1;\n    }\n\n    /**\n    * @dev Get operating status of contract\n    *\n    * @return A bool that is the current operating status\n    */      \n    function isOperational() \n                            public \n                            view \n                            returns(bool) \n    {\n        return operational;\n    }\n\n    function isCallerAirlineRegistered(address originSender)\n                            public\n                            view\n                            returns (bool)\n    {\n        return airlines[originSender].isRegistered;\n    }\n\n    function isCallerAirlineFunded(address originSender)\n                            public\n                            view\n                            returns (bool)\n    {\n        return airlines[originSender].isFunded;\n    }\n\n    function isFlightInsured(address originSender, address airline, string flightNumber, uint256 timestamp)\n                            public\n                            view\n                            returns (bool)\n    {\n        FlightInsurance storage insurance = flightInsurances[getInsuranceKey(originSender, airline, flightNumber, timestamp)];\n        return insurance.isInsured;\n    }\n\n    /**\n    * @dev Sets contract operations on/off\n    *\n    * When operational mode is disabled, all write transactions except for this one will fail\n    */    \n    function setOperatingStatus\n                            (\n                                bool mode\n                            ) \n                            external\n                            requireContractOwner \n    {\n        operational = mode;\n    }\n\n    /********************************************************************************************/\n    /*                                     SMART CONTRACT FUNCTIONS                             */\n    /********************************************************************************************/\n\n    /**\n    * @dev Check if first airline is registered\n    * \n    * @return bool\n    */\n    function isFirstAirlineRegistered(address firstAirline)\n                            external\n                            view  \n                            requireIsOperational\n                            returns(bool)\n    {\n        return airlines[firstAirline].isRegistered;\n    }\n\n    /**\n    *@dev get address balance\n    *\n    *\n    */\n    function getBalance\n                            (\n                            )\n                            public\n                            view\n                            requireIsOperational\n                            requireContractOwner\n                            returns (uint256)\n    {\n        return address(this).balance;\n    }\n\n   /**\n    * @dev Add an airline to the registration queue\n    *      Can only be called from FlightSuretyApp contract\n    *\n    */\n    function registerAirline\n                            (\n                                address originSender,\n                                address airline\n                            )\n                            external\n                            requireIsOperational\n                            requireIsCallerAuthorized\n                            requireIsCallerAirlineRegistered(originSender)\n                            requireIsCallerAirlineFunded(originSender)\n                            returns(bool success)\n    {\n        require(!airlines[airline].isRegistered, \"Airline already registred\");\n        airlines[airline] =  Airline({isRegistered: true, isFunded: false});\n        return airlines[airline].isRegistered;\n    }\n\n    /**\n    *@dev Fund an airline\n    *\n    */\n    function fundAirline\n                            (\n                                address airline\n                            )\n                            external\n                            requireIsOperational\n                            requireIsCallerAuthorized\n    {\n        airlines[airline].isFunded = true;\n    }\n\n   /**\n    * @dev Buy insurance for a flight\n    *\n    */   \n    function buy\n                            (              \n                                address originSender,\n                                address airline,\n                                string flightNumber,\n                                uint256 timestamp,\n                                uint256 amount               \n                            )\n                            external\n                            requireIsOperational\n                            requireIsCallerAuthorized\n                            requireFlightNotInsured(originSender, airline, flightNumber, timestamp)\n    {\n        FlightInsurance storage insurance = flightInsurances[getInsuranceKey(originSender, airline, flightNumber, timestamp)];\n        insurance.isInsured = true;\n        insurance.amount = amount;\n\n        // Add insuree to list of all insurees (if not exists)\n        appendInsuree(originSender, airline, flightNumber, timestamp);\n    }\n\n    /**\n     *  @dev Transfers eligible payout funds to insuree\n     *\n    */\n    function pay\n                            (\n                                address originSender\n                            )\n                            external\n                            requireIsOperational\n                            requireIsCallerAuthorized\n    {\n        require(address(this).balance > insureeBalances[originSender], \"Contract out of funds\");\n\n        uint256 prev = insureeBalances[originSender];\n        insureeBalances[originSender] = 0;\n        originSender.transfer(prev);\n    }\n    \n    function appendInsuree\n                            (\n                                address originSender,\n                                address airline,\n                                string flightNumber,\n                                uint256 timestamp\n                            )\n                            internal\n                            requireIsOperational\n    {\n        address[] storage insurees = insureesMap[getInsuranceKey(0x0, airline, flightNumber, timestamp)];\n        bool duplicate = false;\n        for(uint256 i = 0; i < insurees.length; i++) {\n            if(insurees[i] == originSender) {\n                duplicate = true;\n                break;\n            }\n        }\n\n        if(!duplicate) {\n            insurees.push(originSender);\n        }\n    }\n\n    function insureeBalance\n                            (\n                                address originSender\n                            )\n                            external\n                            requireIsOperational\n                            requireIsCallerAuthorized\n                            view\n                            returns (uint256)\n    {\n        return insureeBalances[originSender];\n    }\n\n    /**\n     *  @dev Credits payouts to insurees\n    */\n    function creditInsurees\n                                (\n                                    address airline,\n                                    string flightNumber,\n                                    uint256 timestamp\n                                )\n                                external\n                                requireIsOperational\n                                requireIsCallerAuthorized\n    {\n        address[] storage insurees = insureesMap[getInsuranceKey(0x0, airline, flightNumber, timestamp)];\n\n        for(uint i = 0; i < insurees.length; i++) {\n            FlightInsurance storage insurance = flightInsurances[getInsuranceKey(insurees[i], airline, flightNumber, timestamp)];\n\n            // if instead of require so that a single mistake does not endanger the payouts of other policyholders\n            if(insurance.isInsured && !insurance.isCredited) {\n                insurance.isCredited = true;\n                insureeBalances[insurees[i]] = insureeBalances[insurees[i]].add(insurance.amount.mul(15).div(10));\n            }\n        }\n    }\n    \n\n    /**\n     *  @dev Transfers eligible payout funds to insuree\n     *\n    */\n    function pay\n                            (\n                            )\n                            external\n                            pure\n    {\n    }\n\n   /**\n    * @dev Initial funding for the insurance. Unless there are too many delayed flights\n    *      resulting in insurance payouts, the contract should be self-sustaining\n    *\n    */   \n    function fund\n                            (   \n                            )\n                            public\n                            payable\n    {\n    }\n\n    function getFlightKey\n                        (\n                            address airline,\n                            string memory flight,\n                            uint256 timestamp\n                        )\n                        pure\n                        internal\n                        returns(bytes32)\n    {\n        return keccak256(abi.encodePacked(airline, flight, timestamp));\n    }\n\n    function getInsuranceKey\n                        (\n                            address insuree,\n                            address airline,\n                            string memory flight,\n                            uint256 timestamp\n                        )\n                        pure\n                        internal\n                        returns(bytes32)\n    {\n        return keccak256(abi.encodePacked(insuree, airline, flight, timestamp));\n    }\n\n    /**\n    * @dev Fallback function for funding smart contract.\n    *\n    */\n    function()\n                            external\n                            payable\n    {\n        fund();\n    }\n\n\n}",
  "sourcePath": "/Users/mac/Desktop/FlightProject/FlightSurety/contracts/FlightSuretyData.sol",
  "compiler": {
    "name": "solc",
    "version": "0.4.26+commit.4563c3fc.Emscripten.clang"
  },
  "schemaVersion": "3.0.11",
  "updatedAt": "2019-09-01T22:56:03.803Z",
  "devdoc": {
    "methods": {
      "authorizeCaller(address)": {
        "details": "Authorize external flightSuretyApp contract to use this contract"
      },
      "buy(address,address,string,uint256,uint256)": {
        "details": "Buy insurance for a flight    "
      },
      "creditInsurees(address,string,uint256)": {
        "details": "Credits payouts to insurees"
      },
      "fund()": {
        "details": "Initial funding for the insurance. Unless there are too many delayed flights     resulting in insurance payouts, the contract should be self-sustaining    "
      },
      "isAuthorizedCaller(address)": {
        "details": "Checks if caller is authorized",
        "return": "A bool is caller authorized"
      },
      "isFirstAirlineRegistered(address)": {
        "details": "Check if first airline is registered ",
        "return": "bool"
      },
      "isOperational()": {
        "details": "Get operating status of contract",
        "return": "A bool that is the current operating status"
      },
      "pay()": {
        "details": "Transfers eligible payout funds to insuree    "
      },
      "pay(address)": {
        "details": "Transfers eligible payout funds to insuree    "
      },
      "registerAirline(address,address)": {
        "details": "Add an airline to the registration queue     Can only be called from FlightSuretyApp contract    "
      },
      "setOperatingStatus(bool)": {
        "details": "Sets contract operations on/off    * When operational mode is disabled, all write transactions except for this one will fail"
      }
    }
  },
  "userdoc": {
    "methods": {
      "deauthorizeCaller(address)": {
        "notice": "dev Deauthorize external app contract to use this contract"
      },
      "fundAirline(address)": {
        "notice": "dev Fund an airline    "
      },
      "getBalance()": {
        "notice": "dev get address balance    *"
      }
    }
  }
}